bx fetch-balance 2MwGGufthfjcGKA8KB4vSXoAHHVBJsezJy8

bx fetch-tx 2a0990b736e79e1d65ce3e9e25427e36855235829d58c1f2a9eac18142c926a6


input for the new transaction will be:
2a0990b736e79e1d65ce3e9e25427e36855235829d58c1f2a9eac18142c926a6:0

the output for the new transaction will be:
n4eaAFB3GPmrJR4ummYpQmYTx2VaNftuPe 800000

bx tx-encode -i 2a0990b736e79e1d65ce3e9e25427e36855235829d58c1f2a9eac18142c926a6:0:0 -o n4eaAFB3GPmrJR4ummYpQmYTx2VaNftuPe:800000 -l 1615161540

bx tx-decode 0100000001a626c94281c1eaa9f2c1589d82355285367e42259e3ece651d9ee736b790092a0000000000000000000100350c00000000001976a914fdbbbe6062fef2fca812e404e3dcb43dcdb4108888acc4684560

Notice that transactions.inputs[0].script is empty. This means that the input has not been endorsed.

Create the first endorsement for the first input 85ff5d95d58fa...:0 of the new transaction, using the first private key, the multisig script and the new transaction.

bx input-sign 156bc5c6f50244b6745e7280671697e8eb703a81a7daf1180ec65d957bff429e "[c4684560] checklocktimeverify drop [0314488ebfec9889c4253fe2d1a21715b932864d2892193e4ca60e0acbd1d9fd1d] checksig" 0100000001a626c94281c1eaa9f2c1589d82355285367e42259e3ece651d9ee736b790092a0000000000000000000100350c00000000001976a914fdbbbe6062fef2fca812e404e3dcb43dcdb4108888acc4684560

Encode the multisig script, for embedding in the endorsement script.

bx script-encode "[c4684560] checklocktimeverify drop [0314488ebfec9889c4253fe2d1a21715b932864d2892193e4ca60e0acbd1d9fd1d] checksig"

04c4684560b175210314488ebfec9889c4253fe2d1a21715b932864d2892193e4ca60e0acbd1d9fd1dac

Create an endorsement script using the endorsement and the encoded script, and assign it to the first input of the transaction.

bx input-set "[3044022024048cd26f0d493173c4c1e15be7fc4bb0c9f91bbba422d46d09b910ec28c0ac02202477ce166b20b13aee4e997c5e2ffbdd8d274d06066307690f75dd7dcc5a3a6a01] [04c4684560b175210314488ebfec9889c4253fe2d1a21715b932864d2892193e4ca60e0acbd1d9fd1dac]" 0100000001a626c94281c1eaa9f2c1589d82355285367e42259e3ece651d9ee736b790092a0000000000000000000100350c00000000001976a914fdbbbe6062fef2fca812e404e3dcb43dcdb4108888acc4684560

0100000001a626c94281c1eaa9f2c1589d82355285367e42259e3ece651d9ee736b790092a000000007400473044022024048cd26f0d493173c4c1e15be7fc4bb0c9f91bbba422d46d09b910ec28c0ac02202477ce166b20b13aee4e997c5e2ffbdd8d274d06066307690f75dd7dcc5a3a6a012a04c4684560b175210314488ebfec9889c4253fe2d1a21715b932864d2892193e4ca60e0acbd1d9fd1dac000000000100350c00000000001976a914fdbbbe6062fef2fca812e404e3dcb43dcdb4108888acc4684560

bx tx-decode 0100000001a626c94281c1eaa9f2c1589d82355285367e42259e3ece651d9ee736b790092a000000007400473044022024048cd26f0d493173c4c1e15be7fc4bb0c9f91bbba422d46d09b910ec28c0ac02202477ce166b20b13aee4e997c5e2ffbdd8d274d06066307690f75dd7dcc5a3a6a012a04c4684560b175210314488ebfec9889c4253fe2d1a21715b932864d2892193e4ca60e0acbd1d9fd1dac000000000100350c00000000001976a914fdbbbe6062fef2fca812e404e3dcb43dcdb4108888acc4684560

Notice that the endorsement script has been applied to transaction.inputs[0].script and that transaction.hash has been updated.

Validate the endorsement of the transaction's first input, using the public key, multisig script, first endorsement and transaction (optional).

bx input-validate 0314488ebfec9889c4253fe2d1a21715b932864d2892193e4ca60e0acbd1d9fd1d "[c4684560] checklocktimeverify drop [0314488ebfec9889c4253fe2d1a21715b932864d2892193e4ca60e0acbd1d9fd1d] checksig" 3044022024048cd26f0d493173c4c1e15be7fc4bb0c9f91bbba422d46d09b910ec28c0ac02202477ce166b20b13aee4e997c5e2ffbdd8d274d06066307690f75dd7dcc5a3a6a01 0100000001a626c94281c1eaa9f2c1589d82355285367e42259e3ece651d9ee736b790092a000000007400473044022024048cd26f0d493173c4c1e15be7fc4bb0c9f91bbba422d46d09b910ec28c0ac02202477ce166b20b13aee4e997c5e2ffbdd8d274d06066307690f75dd7dcc5a3a6a012a04c4684560b175210314488ebfec9889c4253fe2d1a21715b932864d2892193e4ca60e0acbd1d9fd1dac000000000100350c00000000001976a914fdbbbe6062fef2fca812e404e3dcb43dcdb4108888acc4684560

Validate the transaction against the blockchain (optional).

bx validate-tx 0100000001a626c94281c1eaa9f2c1589d82355285367e42259e3ece651d9ee736b790092a000000007400473044022024048cd26f0d493173c4c1e15be7fc4bb0c9f91bbba422d46d09b910ec28c0ac02202477ce166b20b13aee4e997c5e2ffbdd8d274d06066307690f75dd7dcc5a3a6a012a04c4684560b175210314488ebfec9889c4253fe2d1a21715b932864d2892193e4ca60e0acbd1d9fd1dac000000000100350c00000000001976a914fdbbbe6062fef2fca812e404e3dcb43dcdb4108888acc4684560

