bx fetch-balance mndQntS3DBqJ9xWMLKBjL1MGaP9yygoXQi

bx fetch-tx a8491ce93f80959cff648930f32de759c451ad4b116f29b058bf7ee54129eb55


input for the new transaction will be:
a8491ce93f80959cff648930f32de759c451ad4b116f29b058bf7ee54129eb55:0

the output for the new transaction will be:
mroQ8Hpydtv5p4mpF7Tbtjqkwi7wHXYZuR 300000


bx tx-encode -i a8491ce93f80959cff648930f32de759c451ad4b116f29b058bf7ee54129eb55:0:0 -o mroQ8Hpydtv5p4mpF7Tbtjqkwi7wHXYZuR:300000 -l 1615294800

010000000155eb2941e57ebf58b0296f114bad51c459e72df3308964ff9c95803fe91c49a800000000000000000001e0930400000000001976a9147bc59a29fdd04f10d03ae5f3668a36163ffc580688ac50714760



Create the first endorsement for the first input using the first private key, the multisig script and the new transaction.

60477150
50714760

bx input-sign fd2fc82cc442f35b3b577dc8f300d80007cc53c8d3f922265ccdc84e5c2729d5 "[50714760] checklocktimeverify drop [0375253f2f96889d04eda186cfd2f0f161f4888e538066acb39adb1729ed374e4e] checksig" 010000000155eb2941e57ebf58b0296f114bad51c459e72df3308964ff9c95803fe91c49a800000000000000000001e0930400000000001976a9147bc59a29fdd04f10d03ae5f3668a36163ffc580688ac50714760

304402202067aa6def46a05c6f74bfe2c859ff1e9066361c287581564771526f78fafd7b02200d84d9990890ee4feb9a5c3734a49aadffbc1e2a07e3526c6aa2cfac5db8ccd901

Encode the multisig script, for embedding in the endorsement script.

bx script-encode "[50714760] checklocktimeverify drop [0375253f2f96889d04eda186cfd2f0f161f4888e538066acb39adb1729ed374e4e] checksig"

0450714760b175210375253f2f96889d04eda186cfd2f0f161f4888e538066acb39adb1729ed374e4eac

Create an endorsement script using the endorsement and the encoded script, and assign it to the first input of the transaction.

bx input-set "[304402202067aa6def46a05c6f74bfe2c859ff1e9066361c287581564771526f78fafd7b02200d84d9990890ee4feb9a5c3734a49aadffbc1e2a07e3526c6aa2cfac5db8ccd901] [0450714760b175210375253f2f96889d04eda186cfd2f0f161f4888e538066acb39adb1729ed374e4eac]" 010000000155eb2941e57ebf58b0296f114bad51c459e72df3308964ff9c95803fe91c49a800000000000000000001e0930400000000001976a9147bc59a29fdd04f10d03ae5f3668a36163ffc580688ac50714760

010000000155eb2941e57ebf58b0296f114bad51c459e72df3308964ff9c95803fe91c49a8000000007347304402202067aa6def46a05c6f74bfe2c859ff1e9066361c287581564771526f78fafd7b02200d84d9990890ee4feb9a5c3734a49aadffbc1e2a07e3526c6aa2cfac5db8ccd9012a0450714760b175210375253f2f96889d04eda186cfd2f0f161f4888e538066acb39adb1729ed374e4eac0000000001e0930400000000001976a9147bc59a29fdd04f10d03ae5f3668a36163ffc580688ac50714760
010000000155eb2941e57ebf58b0296f114bad51c459e72df3308964ff9c95803fe91c49a8000000007347304402202067aa6def46a05c6f74bfe2c859ff1e9066361c287581564771526f78fafd7b02200d84d9990890ee4feb9a5c3734a49aadffbc1e2a07e3526c6aa2cfac5db8ccd9012a0450714760b175210375253f2f96889d04eda186cfd2f0f161f4888e538066acb39adb1729ed374e4eac0000000001e0930400000000001976a9147bc59a29fdd04f10d03ae5f3668a36163ffc580688ac50714760

